{
  "_format": "hh-sol-artifact-1",
  "contractName": "NFT",
  "sourceName": "contracts/NFT.sol",
  "abi": [
    {
      "inputs": [
        {
          "internalType": "string",
          "name": "name",
          "type": "string"
        },
        {
          "internalType": "string",
          "name": "symbol",
          "type": "string"
        },
        {
          "internalType": "uint256",
          "name": "publicSaleStartTime",
          "type": "uint256"
        },
        {
          "internalType": "address[]",
          "name": "payees",
          "type": "address[]"
        },
        {
          "internalType": "uint256[]",
          "name": "shares",
          "type": "uint256[]"
        }
      ],
      "stateMutability": "nonpayable",
      "type": "constructor"
    },
    {
      "anonymous": false,
      "inputs": [
        {
          "indexed": true,
          "internalType": "address",
          "name": "owner",
          "type": "address"
        },
        {
          "indexed": true,
          "internalType": "address",
          "name": "approved",
          "type": "address"
        },
        {
          "indexed": true,
          "internalType": "uint256",
          "name": "tokenId",
          "type": "uint256"
        }
      ],
      "name": "Approval",
      "type": "event"
    },
    {
      "anonymous": false,
      "inputs": [
        {
          "indexed": true,
          "internalType": "address",
          "name": "owner",
          "type": "address"
        },
        {
          "indexed": true,
          "internalType": "address",
          "name": "operator",
          "type": "address"
        },
        {
          "indexed": false,
          "internalType": "bool",
          "name": "approved",
          "type": "bool"
        }
      ],
      "name": "ApprovalForAll",
      "type": "event"
    },
    {
      "anonymous": false,
      "inputs": [
        {
          "indexed": true,
          "internalType": "contract IERC20",
          "name": "token",
          "type": "address"
        },
        {
          "indexed": false,
          "internalType": "address",
          "name": "to",
          "type": "address"
        },
        {
          "indexed": false,
          "internalType": "uint256",
          "name": "amount",
          "type": "uint256"
        }
      ],
      "name": "ERC20PaymentReleased",
      "type": "event"
    },
    {
      "anonymous": false,
      "inputs": [
        {
          "indexed": true,
          "internalType": "address",
          "name": "previousOwner",
          "type": "address"
        },
        {
          "indexed": true,
          "internalType": "address",
          "name": "newOwner",
          "type": "address"
        }
      ],
      "name": "OwnershipTransferred",
      "type": "event"
    },
    {
      "anonymous": false,
      "inputs": [
        {
          "indexed": false,
          "internalType": "address",
          "name": "account",
          "type": "address"
        }
      ],
      "name": "Paused",
      "type": "event"
    },
    {
      "anonymous": false,
      "inputs": [
        {
          "indexed": false,
          "internalType": "address",
          "name": "account",
          "type": "address"
        },
        {
          "indexed": false,
          "internalType": "uint256",
          "name": "shares",
          "type": "uint256"
        }
      ],
      "name": "PayeeAdded",
      "type": "event"
    },
    {
      "anonymous": false,
      "inputs": [
        {
          "indexed": false,
          "internalType": "address",
          "name": "from",
          "type": "address"
        },
        {
          "indexed": false,
          "internalType": "uint256",
          "name": "amount",
          "type": "uint256"
        }
      ],
      "name": "PaymentReceived",
      "type": "event"
    },
    {
      "anonymous": false,
      "inputs": [
        {
          "indexed": false,
          "internalType": "address",
          "name": "to",
          "type": "address"
        },
        {
          "indexed": false,
          "internalType": "uint256",
          "name": "amount",
          "type": "uint256"
        }
      ],
      "name": "PaymentReleased",
      "type": "event"
    },
    {
      "anonymous": false,
      "inputs": [
        {
          "indexed": true,
          "internalType": "address",
          "name": "from",
          "type": "address"
        },
        {
          "indexed": true,
          "internalType": "address",
          "name": "to",
          "type": "address"
        },
        {
          "indexed": true,
          "internalType": "uint256",
          "name": "tokenId",
          "type": "uint256"
        }
      ],
      "name": "Transfer",
      "type": "event"
    },
    {
      "anonymous": false,
      "inputs": [
        {
          "indexed": false,
          "internalType": "address",
          "name": "account",
          "type": "address"
        }
      ],
      "name": "Unpaused",
      "type": "event"
    },
    {
      "inputs": [
        {
          "internalType": "address",
          "name": "to",
          "type": "address"
        },
        {
          "internalType": "uint256",
          "name": "tokenId",
          "type": "uint256"
        }
      ],
      "name": "approve",
      "outputs": [],
      "stateMutability": "nonpayable",
      "type": "function"
    },
    {
      "inputs": [
        {
          "internalType": "address",
          "name": "owner",
          "type": "address"
        }
      ],
      "name": "balanceOf",
      "outputs": [
        {
          "internalType": "uint256",
          "name": "",
          "type": "uint256"
        }
      ],
      "stateMutability": "view",
      "type": "function"
    },
    {
      "inputs": [
        {
          "internalType": "uint256",
          "name": "tokenId",
          "type": "uint256"
        }
      ],
      "name": "getApproved",
      "outputs": [
        {
          "internalType": "address",
          "name": "",
          "type": "address"
        }
      ],
      "stateMutability": "view",
      "type": "function"
    },
    {
      "inputs": [
        {
          "internalType": "address",
          "name": "owner",
          "type": "address"
        },
        {
          "internalType": "address",
          "name": "operator",
          "type": "address"
        }
      ],
      "name": "isApprovedForAll",
      "outputs": [
        {
          "internalType": "bool",
          "name": "",
          "type": "bool"
        }
      ],
      "stateMutability": "view",
      "type": "function"
    },
    {
      "inputs": [
        {
          "internalType": "address",
          "name": "recipient",
          "type": "address"
        },
        {
          "internalType": "uint8",
          "name": "quantity",
          "type": "uint8"
        }
      ],
      "name": "mintTo",
      "outputs": [],
      "stateMutability": "payable",
      "type": "function"
    },
    {
      "inputs": [],
      "name": "name",
      "outputs": [
        {
          "internalType": "string",
          "name": "",
          "type": "string"
        }
      ],
      "stateMutability": "view",
      "type": "function"
    },
    {
      "inputs": [],
      "name": "owner",
      "outputs": [
        {
          "internalType": "address",
          "name": "",
          "type": "address"
        }
      ],
      "stateMutability": "view",
      "type": "function"
    },
    {
      "inputs": [
        {
          "internalType": "uint256",
          "name": "tokenId",
          "type": "uint256"
        }
      ],
      "name": "ownerOf",
      "outputs": [
        {
          "internalType": "address",
          "name": "",
          "type": "address"
        }
      ],
      "stateMutability": "view",
      "type": "function"
    },
    {
      "inputs": [],
      "name": "pause",
      "outputs": [],
      "stateMutability": "nonpayable",
      "type": "function"
    },
    {
      "inputs": [],
      "name": "paused",
      "outputs": [
        {
          "internalType": "bool",
          "name": "",
          "type": "bool"
        }
      ],
      "stateMutability": "view",
      "type": "function"
    },
    {
      "inputs": [
        {
          "internalType": "uint256",
          "name": "index",
          "type": "uint256"
        }
      ],
      "name": "payee",
      "outputs": [
        {
          "internalType": "address",
          "name": "",
          "type": "address"
        }
      ],
      "stateMutability": "view",
      "type": "function"
    },
    {
      "inputs": [
        {
          "internalType": "address",
          "name": "recipient",
          "type": "address"
        },
        {
          "internalType": "uint8",
          "name": "quantity",
          "type": "uint8"
        },
        {
          "internalType": "bytes",
          "name": "signature",
          "type": "bytes"
        }
      ],
      "name": "redeemTo",
      "outputs": [],
      "stateMutability": "payable",
      "type": "function"
    },
    {
      "inputs": [
        {
          "internalType": "address payable",
          "name": "account",
          "type": "address"
        }
      ],
      "name": "release",
      "outputs": [],
      "stateMutability": "nonpayable",
      "type": "function"
    },
    {
      "inputs": [
        {
          "internalType": "contract IERC20",
          "name": "token",
          "type": "address"
        },
        {
          "internalType": "address",
          "name": "account",
          "type": "address"
        }
      ],
      "name": "release",
      "outputs": [],
      "stateMutability": "nonpayable",
      "type": "function"
    },
    {
      "inputs": [
        {
          "internalType": "contract IERC20",
          "name": "token",
          "type": "address"
        },
        {
          "internalType": "address",
          "name": "account",
          "type": "address"
        }
      ],
      "name": "released",
      "outputs": [
        {
          "internalType": "uint256",
          "name": "",
          "type": "uint256"
        }
      ],
      "stateMutability": "view",
      "type": "function"
    },
    {
      "inputs": [
        {
          "internalType": "address",
          "name": "account",
          "type": "address"
        }
      ],
      "name": "released",
      "outputs": [
        {
          "internalType": "uint256",
          "name": "",
          "type": "uint256"
        }
      ],
      "stateMutability": "view",
      "type": "function"
    },
    {
      "inputs": [],
      "name": "renounceOwnership",
      "outputs": [],
      "stateMutability": "nonpayable",
      "type": "function"
    },
    {
      "inputs": [
        {
          "internalType": "address",
          "name": "from",
          "type": "address"
        },
        {
          "internalType": "address",
          "name": "to",
          "type": "address"
        },
        {
          "internalType": "uint256",
          "name": "tokenId",
          "type": "uint256"
        }
      ],
      "name": "safeTransferFrom",
      "outputs": [],
      "stateMutability": "nonpayable",
      "type": "function"
    },
    {
      "inputs": [
        {
          "internalType": "address",
          "name": "from",
          "type": "address"
        },
        {
          "internalType": "address",
          "name": "to",
          "type": "address"
        },
        {
          "internalType": "uint256",
          "name": "tokenId",
          "type": "uint256"
        },
        {
          "internalType": "bytes",
          "name": "_data",
          "type": "bytes"
        }
      ],
      "name": "safeTransferFrom",
      "outputs": [],
      "stateMutability": "nonpayable",
      "type": "function"
    },
    {
      "inputs": [],
      "name": "saleStartTime",
      "outputs": [
        {
          "internalType": "uint256",
          "name": "",
          "type": "uint256"
        }
      ],
      "stateMutability": "view",
      "type": "function"
    },
    {
      "inputs": [
        {
          "internalType": "address",
          "name": "operator",
          "type": "address"
        },
        {
          "internalType": "bool",
          "name": "approved",
          "type": "bool"
        }
      ],
      "name": "setApprovalForAll",
      "outputs": [],
      "stateMutability": "nonpayable",
      "type": "function"
    },
    {
      "inputs": [
        {
          "internalType": "string",
          "name": "baseTokenURI",
          "type": "string"
        }
      ],
      "name": "setBaseTokenURI",
      "outputs": [],
      "stateMutability": "nonpayable",
      "type": "function"
    },
    {
      "inputs": [
        {
          "internalType": "uint256",
          "name": "startTime",
          "type": "uint256"
        }
      ],
      "name": "setSaleStartTime",
      "outputs": [],
      "stateMutability": "nonpayable",
      "type": "function"
    },
    {
      "inputs": [
        {
          "internalType": "address",
          "name": "account",
          "type": "address"
        }
      ],
      "name": "setSignerAddress",
      "outputs": [],
      "stateMutability": "nonpayable",
      "type": "function"
    },
    {
      "inputs": [
        {
          "internalType": "address",
          "name": "account",
          "type": "address"
        }
      ],
      "name": "shares",
      "outputs": [
        {
          "internalType": "uint256",
          "name": "",
          "type": "uint256"
        }
      ],
      "stateMutability": "view",
      "type": "function"
    },
    {
      "inputs": [],
      "name": "signerAddress",
      "outputs": [
        {
          "internalType": "address",
          "name": "",
          "type": "address"
        }
      ],
      "stateMutability": "view",
      "type": "function"
    },
    {
      "inputs": [
        {
          "internalType": "bytes4",
          "name": "interfaceId",
          "type": "bytes4"
        }
      ],
      "name": "supportsInterface",
      "outputs": [
        {
          "internalType": "bool",
          "name": "",
          "type": "bool"
        }
      ],
      "stateMutability": "view",
      "type": "function"
    },
    {
      "inputs": [],
      "name": "symbol",
      "outputs": [
        {
          "internalType": "string",
          "name": "",
          "type": "string"
        }
      ],
      "stateMutability": "view",
      "type": "function"
    },
    {
      "inputs": [
        {
          "internalType": "uint256",
          "name": "tokenId",
          "type": "uint256"
        }
      ],
      "name": "tokenURI",
      "outputs": [
        {
          "internalType": "string",
          "name": "",
          "type": "string"
        }
      ],
      "stateMutability": "view",
      "type": "function"
    },
    {
      "inputs": [
        {
          "internalType": "contract IERC20",
          "name": "token",
          "type": "address"
        }
      ],
      "name": "totalReleased",
      "outputs": [
        {
          "internalType": "uint256",
          "name": "",
          "type": "uint256"
        }
      ],
      "stateMutability": "view",
      "type": "function"
    },
    {
      "inputs": [],
      "name": "totalReleased",
      "outputs": [
        {
          "internalType": "uint256",
          "name": "",
          "type": "uint256"
        }
      ],
      "stateMutability": "view",
      "type": "function"
    },
    {
      "inputs": [],
      "name": "totalShares",
      "outputs": [
        {
          "internalType": "uint256",
          "name": "",
          "type": "uint256"
        }
      ],
      "stateMutability": "view",
      "type": "function"
    },
    {
      "inputs": [],
      "name": "totalSupply",
      "outputs": [
        {
          "internalType": "uint256",
          "name": "",
          "type": "uint256"
        }
      ],
      "stateMutability": "view",
      "type": "function"
    },
    {
      "inputs": [
        {
          "internalType": "address",
          "name": "from",
          "type": "address"
        },
        {
          "internalType": "address",
          "name": "to",
          "type": "address"
        },
        {
          "internalType": "uint256",
          "name": "tokenId",
          "type": "uint256"
        }
      ],
      "name": "transferFrom",
      "outputs": [],
      "stateMutability": "nonpayable",
      "type": "function"
    },
    {
      "inputs": [
        {
          "internalType": "address",
          "name": "newOwner",
          "type": "address"
        }
      ],
      "name": "transferOwnership",
      "outputs": [],
      "stateMutability": "nonpayable",
      "type": "function"
    },
    {
      "inputs": [],
      "name": "unpause",
      "outputs": [],
      "stateMutability": "nonpayable",
      "type": "function"
    },
    {
      "stateMutability": "payable",
      "type": "receive"
    }
  ],
  "bytecode": "0x60806040523480156200001157600080fd5b5060405162003773380380620037738339810160408190526200003491620005fe565b8181868681600090805190602001906200005092919062000450565b5080516200006690600190602084019062000450565b505050620000836200007d6200020c60201b60201c565b62000210565b6008805460ff60a01b191690558051825114620001025760405162461bcd60e51b815260206004820152603260248201527f5061796d656e7453706c69747465723a2070617965657320616e6420736861726044820152710cae640d8cadccee8d040dad2e6dac2e8c6d60731b60648201526084015b60405180910390fd5b6000825111620001555760405162461bcd60e51b815260206004820152601a60248201527f5061796d656e7453706c69747465723a206e6f207061796565730000000000006044820152606401620000f9565b60005b8251811015620001d957620001c48382815181106200018757634e487b7160e01b600052603260045260246000fd5b6020026020010151838381518110620001b057634e487b7160e01b600052603260045260246000fd5b60200260200101516200026260201b60201c565b80620001d081620007df565b91505062000158565b5050604080516020810191829052600090819052620001fd92506010919062000450565b50505060125550620008299050565b3390565b600880546001600160a01b038381166001600160a01b0319831681179093556040519116919082907f8be0079c531659141344cd1fd0a4f28419497f9722a3daafe3b4186f6b6457e090600090a35050565b6001600160a01b038216620002cf5760405162461bcd60e51b815260206004820152602c60248201527f5061796d656e7453706c69747465723a206163636f756e74206973207468652060448201526b7a65726f206164647265737360a01b6064820152608401620000f9565b60008111620003215760405162461bcd60e51b815260206004820152601d60248201527f5061796d656e7453706c69747465723a207368617265732061726520300000006044820152606401620000f9565b6001600160a01b0382166000908152600b6020526040902054156200039d5760405162461bcd60e51b815260206004820152602b60248201527f5061796d656e7453706c69747465723a206163636f756e7420616c726561647960448201526a206861732073686172657360a81b6064820152608401620000f9565b600d8054600181019091557fd7b6990105719101dabeb77144f2a3385c8033acd3af97e9423a695e81ad1eb50180546001600160a01b0319166001600160a01b0384169081179091556000908152600b602052604090208190556009546200040790829062000787565b600955604080516001600160a01b0384168152602081018390527f40c340f65e17194d14ddddb073d3c9f888e3cb52b5aae0c6c7706b4fbc905fac910160405180910390a15050565b8280546200045e90620007a2565b90600052602060002090601f016020900481019282620004825760008555620004cd565b82601f106200049d57805160ff1916838001178555620004cd565b82800160010185558215620004cd579182015b82811115620004cd578251825591602001919060010190620004b0565b50620004db929150620004df565b5090565b5b80821115620004db5760008155600101620004e0565b600082601f83011262000507578081fd5b81516020620005206200051a8362000761565b6200072e565b80838252828201915082860187848660051b890101111562000540578586fd5b855b85811015620005605781518452928401929084019060010162000542565b5090979650505050505050565b600082601f8301126200057e578081fd5b81516001600160401b038111156200059a576200059a62000813565b6020620005b0601f8301601f191682016200072e565b8281528582848701011115620005c4578384fd5b835b83811015620005e3578581018301518282018401528201620005c6565b83811115620005f457848385840101525b5095945050505050565b600080600080600060a0868803121562000616578081fd5b85516001600160401b03808211156200062d578283fd5b6200063b89838a016200056d565b965060209150818801518181111562000652578384fd5b620006608a828b016200056d565b965050604088015194506060880151818111156200067c578384fd5b8801601f81018a136200068d578384fd5b80516200069e6200051a8262000761565b8082825285820191508584018d878560051b8701011115620006be578788fd5b8794505b83851015620006f75780516001600160a01b0381168114620006e2578889fd5b835260019490940193918601918601620006c2565b5060808c015190975094505050508082111562000712578283fd5b506200072188828901620004f6565b9150509295509295909350565b604051601f8201601f191681016001600160401b038111828210171562000759576200075962000813565b604052919050565b60006001600160401b038211156200077d576200077d62000813565b5060051b60200190565b600082198211156200079d576200079d620007fd565b500190565b600181811c90821680620007b757607f821691505b60208210811415620007d957634e487b7160e01b600052602260045260246000fd5b50919050565b6000600019821415620007f657620007f6620007fd565b5060010190565b634e487b7160e01b600052601160045260246000fd5b634e487b7160e01b600052604160045260246000fd5b612f3a80620008396000396000f3fe6080604052600436106102135760003560e01c80635c975abb116101185780639852595c116100a0578063ce7c2ac21161006f578063ce7c2ac214610650578063d79779b214610686578063e33b7de3146106bc578063e985e9c5146106d1578063f2fde38b1461071a57600080fd5b80639852595c146105ba578063a22cb465146105f0578063b88d4fde14610610578063c87b56dd1461063057600080fd5b8063715018a6116100e7578063715018a61461053d5780638456cb59146105525780638b83209b146105675780638da5cb5b1461058757806395d89b41146105a557600080fd5b80635c975abb146104cb5780636352211e146104ea578063699e5f221461050a57806370a082311461051d57600080fd5b806323b872dd1161019b578063406072a91161016a578063406072a91461040757806342842e0e1461044d57806348b750441461046d578063525f8a5c1461048d5780635b7633d0146104ad57600080fd5b806323b872dd1461039d57806330176e13146103bd5780633a98ef39146103dd5780633f4ba83a146103f257600080fd5b8063095ea7b3116101e2578063095ea7b3146103125780630ef553f91461033257806318160ddd1461034557806319165587146103685780631cbaee2d1461038857600080fd5b806301ffc9a714610261578063046dc1661461029657806306fdde03146102b8578063081812fc146102da57600080fd5b3661025c577f6ef95f06320e7a25a04a175ca677b7052bdd97131872c2192525a629f51be77033604080516001600160a01b0390921682523460208301520160405180910390a1005b600080fd5b34801561026d57600080fd5b5061028161027c3660046129bf565b61073a565b60405190151581526020015b60405180910390f35b3480156102a257600080fd5b506102b66102b136600461277b565b61078c565b005b3480156102c457600080fd5b506102cd6107e1565b60405161028d9190612b33565b3480156102e657600080fd5b506102fa6102f5366004612a4f565b610873565b6040516001600160a01b03909116815260200161028d565b34801561031e57600080fd5b506102b661032d3660046128b9565b610908565b6102b6610340366004612918565b610a1f565b34801561035157600080fd5b50600354600254035b60405190815260200161028d565b34801561037457600080fd5b506102b661038336600461277b565b610ae9565b34801561039457600080fd5b5060125461035a565b3480156103a957600080fd5b506102b66103b83660046127cf565b610b1f565b3480156103c957600080fd5b506102b66103d8366004612a09565b610b50565b3480156103e957600080fd5b5060095461035a565b3480156103fe57600080fd5b506102b6610b91565b34801561041357600080fd5b5061035a6104223660046129f7565b6001600160a01b039182166000908152600f6020908152604080832093909416825291909152205490565b34801561045957600080fd5b506102b66104683660046127cf565b610bc5565b34801561047957600080fd5b506102b66104883660046129f7565b610be0565b34801561049957600080fd5b506102b66104a8366004612a4f565b610c14565b3480156104b957600080fd5b506011546001600160a01b03166102fa565b3480156104d757600080fd5b50600854600160a01b900460ff16610281565b3480156104f657600080fd5b506102fa610505366004612a4f565b610c43565b6102b66105183660046128e4565b610cba565b34801561052957600080fd5b5061035a61053836600461277b565b610d3f565b34801561054957600080fd5b506102b6610d8c565b34801561055e57600080fd5b506102b6610dc0565b34801561057357600080fd5b506102fa610582366004612a4f565b610df2565b34801561059357600080fd5b506008546001600160a01b03166102fa565b3480156105b157600080fd5b506102cd610e30565b3480156105c657600080fd5b5061035a6105d536600461277b565b6001600160a01b03166000908152600c602052604090205490565b3480156105fc57600080fd5b506102b661060b36600461288c565b610e3f565b34801561061c57600080fd5b506102b661062b36600461280f565b610e4a565b34801561063c57600080fd5b506102cd61064b366004612a4f565b610e7c565b34801561065c57600080fd5b5061035a61066b36600461277b565b6001600160a01b03166000908152600b602052604090205490565b34801561069257600080fd5b5061035a6106a136600461277b565b6001600160a01b03166000908152600e602052604090205490565b3480156106c857600080fd5b50600a5461035a565b3480156106dd57600080fd5b506102816106ec366004612797565b6001600160a01b03918216600090815260076020908152604080832093909416825291909152205460ff1690565b34801561072657600080fd5b506102b661073536600461277b565b610f57565b60006001600160e01b031982166380ac58cd60e01b148061076b57506001600160e01b03198216635b5e139f60e01b145b8061078657506301ffc9a760e01b6001600160e01b03198316145b92915050565b6008546001600160a01b031633146107bf5760405162461bcd60e51b81526004016107b690612cc1565b60405180910390fd5b601180546001600160a01b0319166001600160a01b0392909216919091179055565b6060600080546107f090612e1f565b80601f016020809104026020016040519081016040528092919081815260200182805461081c90612e1f565b80156108695780601f1061083e57610100808354040283529160200191610869565b820191906000526020600020905b81548152906001019060200180831161084c57829003601f168201915b5050505050905090565b6000818152600460205260408120546001600160a01b03166108ec5760405162461bcd60e51b815260206004820152602c60248201527f4552433732313a20617070726f76656420717565727920666f72206e6f6e657860448201526b34b9ba32b73a103a37b5b2b760a11b60648201526084016107b6565b506000908152600660205260409020546001600160a01b031690565b600061091382610c43565b9050806001600160a01b0316836001600160a01b031614156109815760405162461bcd60e51b815260206004820152602160248201527f4552433732313a20617070726f76616c20746f2063757272656e74206f776e656044820152603960f91b60648201526084016107b6565b336001600160a01b038216148061099d575061099d81336106ec565b610a0f5760405162461bcd60e51b815260206004820152603860248201527f4552433732313a20617070726f76652063616c6c6572206973206e6f74206f7760448201527f6e6572206e6f7220617070726f76656420666f7220616c6c000000000000000060648201526084016107b6565b610a1a838383610fef565b505050565b610a67610a2b3361104b565b83838080601f0160208091040260200160405190810160405280939291908181526020018383808284376000920191909152506110d092505050565b610aa75760405162461bcd60e51b815260206004820152601160248201527014da59db985d1d5c99481a5b9d985b1a59607a1b60448201526064016107b6565b610abb60ff8416662386f26fc10000612d95565b3414610ad95760405162461bcd60e51b81526004016107b690612bde565b610ae384846110f4565b50505050565b6008546001600160a01b03163314610b135760405162461bcd60e51b81526004016107b690612cc1565b610b1c816111c9565b50565b610b2933826112f7565b610b455760405162461bcd60e51b81526004016107b690612cf6565b610a1a8383836113ee565b6008546001600160a01b03163314610b7a5760405162461bcd60e51b81526004016107b690612cc1565b8051610b8d906010906020840190612656565b5050565b6008546001600160a01b03163314610bbb5760405162461bcd60e51b81526004016107b690612cc1565b610bc36115e3565b565b610a1a83838360405180602001604052806000815250610e4a565b6008546001600160a01b03163314610c0a5760405162461bcd60e51b81526004016107b690612cc1565b610b8d8282611680565b6008546001600160a01b03163314610c3e5760405162461bcd60e51b81526004016107b690612cc1565b601255565b6000818152600460205260408120546001600160a01b0316806107865760405162461bcd60e51b815260206004820152602960248201527f4552433732313a206f776e657220717565727920666f72206e6f6e657869737460448201526832b73a103a37b5b2b760b91b60648201526084016107b6565b601254421015610d035760405162461bcd60e51b815260206004820152601460248201527314d85b19481a185cc81b9bdd081cdd185c9d195960621b60448201526064016107b6565b610d1760ff821666470de4df820000612d95565b3414610d355760405162461bcd60e51b81526004016107b690612bde565b610b8d82826110f4565b60006001600160a01b038216610d675760405162461bcd60e51b81526004016107b690612c77565b506001600160a01b03166000908152600560205260409020546001600160801b031690565b6008546001600160a01b03163314610db65760405162461bcd60e51b81526004016107b690612cc1565b610bc36000611868565b6008546001600160a01b03163314610dea5760405162461bcd60e51b81526004016107b690612cc1565b610bc36118ba565b6000600d8281548110610e1557634e487b7160e01b600052603260045260246000fd5b6000918252602090912001546001600160a01b031692915050565b6060600180546107f090612e1f565b610b8d338383611942565b610e5433836112f7565b610e705760405162461bcd60e51b81526004016107b690612cf6565b610ae384848484611a11565b6000818152600460205260409020546060906001600160a01b0316610efb5760405162461bcd60e51b815260206004820152602f60248201527f4552433732314d657461646174613a2055524920717565727920666f72206e6f60448201526e3732bc34b9ba32b73a103a37b5b2b760891b60648201526084016107b6565b6000610f05611a44565b90506000815111610f255760405180602001604052806000815250610f50565b80610f2f84611a53565b604051602001610f40929190612ac7565b6040516020818303038152906040525b9392505050565b6008546001600160a01b03163314610f815760405162461bcd60e51b81526004016107b690612cc1565b6001600160a01b038116610fe65760405162461bcd60e51b815260206004820152602660248201527f4f776e61626c653a206e6577206f776e657220697320746865207a65726f206160448201526564647265737360d01b60648201526084016107b6565b610b1c81611868565b60008281526006602052604080822080546001600160a01b0319166001600160a01b0387811691821790925591518593918516917f8c5be1e5ebec7d5bd14f71427d1e84f3dd0314c0f7b2291e5b200ac8c7c3b92591a4505050565b60408051606083901b6bffffffffffffffffffffffff1916602080830191909152825160148184030181526034830184528051908201207f19457468657265756d205369676e6564204d6573736167653a0a33320000000060548401526070808401919091528351808403909101815260909092019092528051910120600090610786565b60006110dc8383611b6d565b6011546001600160a01b039182169116149392505050565b6122b88160ff166111086003546002540390565b6111129190612d69565b11156111555760405162461bcd60e51b815260206004820152601260248201527113585e081cdd5c1c1b1e481c995858da195960721b60448201526064016107b6565b60058160ff1661116433611b91565b61116e9190612d69565b11156111bc5760405162461bcd60e51b815260206004820152601d60248201527f457863656564206d696e74206c696d697420706572206164647265737300000060448201526064016107b6565b610b8d828260ff16611be5565b6001600160a01b0381166000908152600b60205260409020546111fe5760405162461bcd60e51b81526004016107b690612b98565b6000611209600a5490565b6112139047612d69565b90506000611240838361123b866001600160a01b03166000908152600c602052604090205490565b611bff565b90508061125f5760405162461bcd60e51b81526004016107b690612c2c565b6001600160a01b0383166000908152600c602052604081208054839290611287908490612d69565b9250508190555080600a60008282546112a09190612d69565b909155506112b090508382611c3d565b604080516001600160a01b0385168152602081018390527fdf20fd1e76bc69d672e4814fafb2c449bba3a5369d8359adf9e05e6fde87b056910160405180910390a1505050565b6000818152600460205260408120546001600160a01b03166113705760405162461bcd60e51b815260206004820152602c60248201527f4552433732313a206f70657261746f7220717565727920666f72206e6f6e657860448201526b34b9ba32b73a103a37b5b2b760a11b60648201526084016107b6565b600061137b83610c43565b9050806001600160a01b0316846001600160a01b031614806113b65750836001600160a01b03166113ab84610873565b6001600160a01b0316145b806113e657506001600160a01b0380821660009081526007602090815260408083209388168352929052205460ff165b949350505050565b60006113f982610c43565b9050836001600160a01b0316816001600160a01b03161461146a5760405162461bcd60e51b815260206004820152602560248201527f4552433732313a207472616e736665722066726f6d20696e636f72726563742060448201526437bbb732b960d91b60648201526084016107b6565b6001600160a01b0383166114cc5760405162461bcd60e51b8152602060048201526024808201527f4552433732313a207472616e7366657220746f20746865207a65726f206164646044820152637265737360e01b60648201526084016107b6565b6114d98484846001611d56565b6114e560008383610fef565b6001600160a01b03841660009081526005602052604081208054600192906115179084906001600160801b0316612db4565b82546101009290920a6001600160801b038181021990931691831602179091556001600160a01b0385166000908152600560205260408120805460019450909261156391859116612d47565b82546001600160801b039182166101009390930a92830291909202199091161790555060008281526004602052604080822080546001600160a01b038088166001600160a01b0319909216821790925591518593918816917fddf252ad1be2c89b69c2b068fc378daa952ba7f163c4a11628f55a4df523b3ef91a4610ae3565b600854600160a01b900460ff166116335760405162461bcd60e51b815260206004820152601460248201527314185d5cd8589b194e881b9bdd081c185d5cd95960621b60448201526064016107b6565b6008805460ff60a01b191690557f5db9ee0a495bf2e6ff9c91a7834c1ba4fdd244a5e8aa4e537bd38aeae4b073aa335b6040516001600160a01b03909116815260200160405180910390a1565b6001600160a01b0381166000908152600b60205260409020546116b55760405162461bcd60e51b81526004016107b690612b98565b6001600160a01b0382166000908152600e60205260408120546040516370a0823160e01b81523060048201526001600160a01b038516906370a082319060240160206040518083038186803b15801561170d57600080fd5b505afa158015611721573d6000803e3d6000fd5b505050506040513d601f19601f820116820180604052508101906117459190612a67565b61174f9190612d69565b90506000611788838361123b87876001600160a01b039182166000908152600f6020908152604080832093909416825291909152205490565b9050806117a75760405162461bcd60e51b81526004016107b690612c2c565b6001600160a01b038085166000908152600f60209081526040808320938716835292905290812080548392906117de908490612d69565b90915550506001600160a01b0384166000908152600e60205260408120805483929061180b908490612d69565b9091555061181c9050848483611db0565b604080516001600160a01b038581168252602082018490528616917f3be5b7a71e84ed12875d241991c70855ac5817d847039e17a9d895c1ceb0f18a910160405180910390a250505050565b600880546001600160a01b038381166001600160a01b0319831681179093556040519116919082907f8be0079c531659141344cd1fd0a4f28419497f9722a3daafe3b4186f6b6457e090600090a35050565b600854600160a01b900460ff16156119075760405162461bcd60e51b815260206004820152601060248201526f14185d5cd8589b194e881c185d5cd95960821b60448201526064016107b6565b6008805460ff60a01b1916600160a01b1790557f62e78cea01bee320cd4e420270b5ea74000d11b0c9f74754ebdbfc544b05a2586116633390565b816001600160a01b0316836001600160a01b031614156119a45760405162461bcd60e51b815260206004820152601960248201527f4552433732313a20617070726f766520746f2063616c6c65720000000000000060448201526064016107b6565b6001600160a01b03838116600081815260076020908152604080832094871680845294825291829020805460ff191686151590811790915591519182527f17307eab39ab6107e8899845ad3d59bd9653f200f220920489ca2b5937696c31910160405180910390a3505050565b611a1c8484846113ee565b611a2884848484611e02565b610ae35760405162461bcd60e51b81526004016107b690612b46565b6060601080546107f090612e1f565b606081611a775750506040805180820190915260018152600360fc1b602082015290565b8160005b8115611aa15780611a8b81612e5a565b9150611a9a9050600a83612d81565b9150611a7b565b60008167ffffffffffffffff811115611aca57634e487b7160e01b600052604160045260246000fd5b6040519080825280601f01601f191660200182016040528015611af4576020820181803683370190505b5090505b84156113e657611b09600183612ddc565b9150611b16600a86612e75565b611b21906030612d69565b60f81b818381518110611b4457634e487b7160e01b600052603260045260246000fd5b60200101906001600160f81b031916908160001a905350611b66600a86612d81565b9450611af8565b6000806000611b7c8585611f0f565b91509150611b8981611f7f565b509392505050565b60006001600160a01b038216611bb95760405162461bcd60e51b81526004016107b690612c77565b506001600160a01b0316600090815260056020526040902054600160801b90046001600160801b031690565b610b8d828260405180602001604052806000815250612180565b6009546001600160a01b0384166000908152600b602052604081205490918391611c299086612d95565b611c339190612d81565b6113e69190612ddc565b80471015611c8d5760405162461bcd60e51b815260206004820152601d60248201527f416464726573733a20696e73756666696369656e742062616c616e636500000060448201526064016107b6565b6000826001600160a01b03168260405160006040518083038185875af1925050503d8060008114611cda576040519150601f19603f3d011682016040523d82523d6000602084013e611cdf565b606091505b5050905080610a1a5760405162461bcd60e51b815260206004820152603a60248201527f416464726573733a20756e61626c6520746f2073656e642076616c75652c207260448201527f6563697069656e74206d6179206861766520726576657274656400000000000060648201526084016107b6565b600854600160a01b900460ff1615610ae35760405162461bcd60e51b815260206004820152601b60248201527f546f6b656e207472616e73666572207768696c6520706175736564000000000060448201526064016107b6565b604080516001600160a01b038416602482015260448082018490528251808303909101815260649091019091526020810180516001600160e01b031663a9059cbb60e01b179052610a1a9084906121b5565b60006001600160a01b0384163b15611f0457604051630a85bd0160e11b81526001600160a01b0385169063150b7a0290611e46903390899088908890600401612af6565b602060405180830381600087803b158015611e6057600080fd5b505af1925050508015611e90575060408051601f3d908101601f19168201909252611e8d918101906129db565b60015b611eea573d808015611ebe576040519150601f19603f3d011682016040523d82523d6000602084013e611ec3565b606091505b508051611ee25760405162461bcd60e51b81526004016107b690612b46565b805181602001fd5b6001600160e01b031916630a85bd0160e11b1490506113e6565b506001949350505050565b600080825160411415611f465760208301516040840151606085015160001a611f3a87828585612287565b94509450505050611f78565b825160401415611f705760208301516040840151611f65868383612374565b935093505050611f78565b506000905060025b9250929050565b6000816004811115611fa157634e487b7160e01b600052602160045260246000fd5b1415611faa5750565b6001816004811115611fcc57634e487b7160e01b600052602160045260246000fd5b141561201a5760405162461bcd60e51b815260206004820152601860248201527f45434453413a20696e76616c6964207369676e6174757265000000000000000060448201526064016107b6565b600281600481111561203c57634e487b7160e01b600052602160045260246000fd5b141561208a5760405162461bcd60e51b815260206004820152601f60248201527f45434453413a20696e76616c6964207369676e6174757265206c656e6774680060448201526064016107b6565b60038160048111156120ac57634e487b7160e01b600052602160045260246000fd5b14156121055760405162461bcd60e51b815260206004820152602260248201527f45434453413a20696e76616c6964207369676e6174757265202773272076616c604482015261756560f01b60648201526084016107b6565b600481600481111561212757634e487b7160e01b600052602160045260246000fd5b1415610b1c5760405162461bcd60e51b815260206004820152602260248201527f45434453413a20696e76616c6964207369676e6174757265202776272076616c604482015261756560f01b60648201526084016107b6565b61218a83836123ad565b61219960008460025484611e02565b610a1a5760405162461bcd60e51b81526004016107b690612b46565b600061220a826040518060400160405280602081526020017f5361666545524332303a206c6f772d6c6576656c2063616c6c206661696c6564815250856001600160a01b03166125429092919063ffffffff16565b805190915015610a1a578080602001905181019061222891906129a3565b610a1a5760405162461bcd60e51b815260206004820152602a60248201527f5361666545524332303a204552433230206f7065726174696f6e20646964206e6044820152691bdd081cdd58d8d9595960b21b60648201526084016107b6565b6000807f7fffffffffffffffffffffffffffffff5d576e7357a4501ddfe92f46681b20a08311156122be575060009050600361236b565b8460ff16601b141580156122d657508460ff16601c14155b156122e7575060009050600461236b565b6040805160008082526020820180845289905260ff881692820192909252606081018690526080810185905260019060a0016020604051602081039080840390855afa15801561233b573d6000803e3d6000fd5b5050604051601f1901519150506001600160a01b0381166123645760006001925092505061236b565b9150600090505b94509492505050565b6000806001600160ff1b0383168161239160ff86901c601b612d69565b905061239f87828885612287565b935093505050935093915050565b6001600160a01b0382166124035760405162461bcd60e51b815260206004820181905260248201527f4552433732313a206d696e7420746f20746865207a65726f206164647265737360448201526064016107b6565b806124505760405162461bcd60e51b815260206004820152601d60248201527f4552433732313a206d696e74207175616e74697479206973207a65726f00000060448201526064016107b6565b6002546000612460826001612d69565b905061246f6000858386611d56565b6001600160a01b03841660009081526005602052604090208054600160801b6001600160801b03808316870181166fffffffffffffffffffffffffffffffff1990931683178290048116870116021790558183015b6040516001939093019283906001600160a01b038716906000907fddf252ad1be2c89b69c2b068fc378daa952ba7f163c4a11628f55a4df523b3ef908290a4600083815260046020526040902080546001600160a01b0319166001600160a01b0387161790558083106124c457506002829055610ae3600085838684565b60606113e68484600085856001600160a01b0385163b6125a45760405162461bcd60e51b815260206004820152601d60248201527f416464726573733a2063616c6c20746f206e6f6e2d636f6e747261637400000060448201526064016107b6565b600080866001600160a01b031685876040516125c09190612aab565b60006040518083038185875af1925050503d80600081146125fd576040519150601f19603f3d011682016040523d82523d6000602084013e612602565b606091505b509150915061261282828661261d565b979650505050505050565b6060831561262c575081610f50565b82511561263c5782518084602001fd5b8160405162461bcd60e51b81526004016107b69190612b33565b82805461266290612e1f565b90600052602060002090601f01602090048101928261268457600085556126ca565b82601f1061269d57805160ff19168380011785556126ca565b828001600101855582156126ca579182015b828111156126ca5782518255916020019190600101906126af565b506126d69291506126da565b5090565b5b808211156126d657600081556001016126db565b600067ffffffffffffffff8084111561270a5761270a612eb5565b604051601f8501601f19908116603f0116810190828211818310171561273257612732612eb5565b8160405280935085815286868601111561274b57600080fd5b858560208301376000602087830101525050509392505050565b803560ff8116811461277657600080fd5b919050565b60006020828403121561278c578081fd5b8135610f5081612ecb565b600080604083850312156127a9578081fd5b82356127b481612ecb565b915060208301356127c481612ecb565b809150509250929050565b6000806000606084860312156127e3578081fd5b83356127ee81612ecb565b925060208401356127fe81612ecb565b929592945050506040919091013590565b60008060008060808587031215612824578081fd5b843561282f81612ecb565b9350602085013561283f81612ecb565b925060408501359150606085013567ffffffffffffffff811115612861578182fd5b8501601f81018713612871578182fd5b612880878235602084016126ef565b91505092959194509250565b6000806040838503121561289e578182fd5b82356128a981612ecb565b915060208301356127c481612ee0565b600080604083850312156128cb578182fd5b82356128d681612ecb565b946020939093013593505050565b600080604083850312156128f6578182fd5b823561290181612ecb565b915061290f60208401612765565b90509250929050565b6000806000806060858703121561292d578384fd5b843561293881612ecb565b935061294660208601612765565b9250604085013567ffffffffffffffff80821115612962578384fd5b818701915087601f830112612975578384fd5b813581811115612983578485fd5b886020828501011115612994578485fd5b95989497505060200194505050565b6000602082840312156129b4578081fd5b8151610f5081612ee0565b6000602082840312156129d0578081fd5b8135610f5081612eee565b6000602082840312156129ec578081fd5b8151610f5081612eee565b600080604083850312156127a9578182fd5b600060208284031215612a1a578081fd5b813567ffffffffffffffff811115612a30578182fd5b8201601f81018413612a40578182fd5b6113e6848235602084016126ef565b600060208284031215612a60578081fd5b5035919050565b600060208284031215612a78578081fd5b5051919050565b60008151808452612a97816020860160208601612df3565b601f01601f19169290920160200192915050565b60008251612abd818460208701612df3565b9190910192915050565b60008351612ad9818460208801612df3565b835190830190612aed818360208801612df3565b01949350505050565b6001600160a01b0385811682528416602082015260408101839052608060608201819052600090612b2990830184612a7f565b9695505050505050565b602081526000610f506020830184612a7f565b60208082526032908201527f4552433732313a207472616e7366657220746f206e6f6e20455243373231526560408201527131b2b4bb32b91034b6b83632b6b2b73a32b960711b606082015260800190565b60208082526026908201527f5061796d656e7453706c69747465723a206163636f756e7420686173206e6f2060408201526573686172657360d01b606082015260800190565b6020808252602e908201527f5472616e73616374696f6e2076616c756520646964206e6f7420657175616c2060408201526d746865206d696e7420707269636560901b606082015260800190565b6020808252602b908201527f5061796d656e7453706c69747465723a206163636f756e74206973206e6f742060408201526a191d59481c185e5b595b9d60aa1b606082015260800190565b6020808252602a908201527f4552433732313a2062616c616e636520717565727920666f7220746865207a65604082015269726f206164647265737360b01b606082015260800190565b6020808252818101527f4f776e61626c653a2063616c6c6572206973206e6f7420746865206f776e6572604082015260600190565b60208082526031908201527f4552433732313a207472616e736665722063616c6c6572206973206e6f74206f6040820152701ddb995c881b9bdc88185c1c1c9bdd9959607a1b606082015260800190565b60006001600160801b03808316818516808303821115612aed57612aed612e89565b60008219821115612d7c57612d7c612e89565b500190565b600082612d9057612d90612e9f565b500490565b6000816000190483118215151615612daf57612daf612e89565b500290565b60006001600160801b0383811690831681811015612dd457612dd4612e89565b039392505050565b600082821015612dee57612dee612e89565b500390565b60005b83811015612e0e578181015183820152602001612df6565b83811115610ae35750506000910152565b600181811c90821680612e3357607f821691505b60208210811415612e5457634e487b7160e01b600052602260045260246000fd5b50919050565b6000600019821415612e6e57612e6e612e89565b5060010190565b600082612e8457612e84612e9f565b500690565b634e487b7160e01b600052601160045260246000fd5b634e487b7160e01b600052601260045260246000fd5b634e487b7160e01b600052604160045260246000fd5b6001600160a01b0381168114610b1c57600080fd5b8015158114610b1c57600080fd5b6001600160e01b031981168114610b1c57600080fdfea264697066735822122054b382a6e1bf9e8deebc91cbed77becc1534a0788c9584f01a49af4cb5144c5464736f6c63430008040033",
  "linkReferences": {},
  "deployedLinkReferences": {}
}