{
  "_format": "hh-sol-artifact-1",
  "contractName": "NFT",
  "sourceName": "contracts/NFT.sol",
  "abi": [
    {
      "inputs": [],
      "stateMutability": "nonpayable",
      "type": "constructor"
    },
    {
      "anonymous": false,
      "inputs": [
        {
          "indexed": true,
          "internalType": "address",
          "name": "owner",
          "type": "address"
        },
        {
          "indexed": true,
          "internalType": "address",
          "name": "approved",
          "type": "address"
        },
        {
          "indexed": true,
          "internalType": "uint256",
          "name": "tokenId",
          "type": "uint256"
        }
      ],
      "name": "Approval",
      "type": "event"
    },
    {
      "anonymous": false,
      "inputs": [
        {
          "indexed": true,
          "internalType": "address",
          "name": "owner",
          "type": "address"
        },
        {
          "indexed": true,
          "internalType": "address",
          "name": "operator",
          "type": "address"
        },
        {
          "indexed": false,
          "internalType": "bool",
          "name": "approved",
          "type": "bool"
        }
      ],
      "name": "ApprovalForAll",
      "type": "event"
    },
    {
      "anonymous": false,
      "inputs": [
        {
          "indexed": true,
          "internalType": "address",
          "name": "previousOwner",
          "type": "address"
        },
        {
          "indexed": true,
          "internalType": "address",
          "name": "newOwner",
          "type": "address"
        }
      ],
      "name": "OwnershipTransferred",
      "type": "event"
    },
    {
      "anonymous": false,
      "inputs": [
        {
          "indexed": true,
          "internalType": "address",
          "name": "from",
          "type": "address"
        },
        {
          "indexed": true,
          "internalType": "address",
          "name": "to",
          "type": "address"
        },
        {
          "indexed": true,
          "internalType": "uint256",
          "name": "tokenId",
          "type": "uint256"
        }
      ],
      "name": "Transfer",
      "type": "event"
    },
    {
      "inputs": [
        {
          "internalType": "address",
          "name": "to",
          "type": "address"
        },
        {
          "internalType": "uint256",
          "name": "tokenId",
          "type": "uint256"
        }
      ],
      "name": "approve",
      "outputs": [],
      "stateMutability": "nonpayable",
      "type": "function"
    },
    {
      "inputs": [
        {
          "internalType": "address",
          "name": "owner",
          "type": "address"
        }
      ],
      "name": "balanceOf",
      "outputs": [
        {
          "internalType": "uint256",
          "name": "",
          "type": "uint256"
        }
      ],
      "stateMutability": "view",
      "type": "function"
    },
    {
      "inputs": [],
      "name": "baseTokenURI",
      "outputs": [
        {
          "internalType": "string",
          "name": "",
          "type": "string"
        }
      ],
      "stateMutability": "view",
      "type": "function"
    },
    {
      "inputs": [
        {
          "internalType": "uint256",
          "name": "tokenId",
          "type": "uint256"
        }
      ],
      "name": "getApproved",
      "outputs": [
        {
          "internalType": "address",
          "name": "",
          "type": "address"
        }
      ],
      "stateMutability": "view",
      "type": "function"
    },
    {
      "inputs": [
        {
          "internalType": "address",
          "name": "owner",
          "type": "address"
        },
        {
          "internalType": "address",
          "name": "operator",
          "type": "address"
        }
      ],
      "name": "isApprovedForAll",
      "outputs": [
        {
          "internalType": "bool",
          "name": "",
          "type": "bool"
        }
      ],
      "stateMutability": "view",
      "type": "function"
    },
    {
      "inputs": [
        {
          "internalType": "address",
          "name": "recipient",
          "type": "address"
        },
        {
          "internalType": "uint8",
          "name": "quantity",
          "type": "uint8"
        }
      ],
      "name": "mintTo",
      "outputs": [],
      "stateMutability": "payable",
      "type": "function"
    },
    {
      "inputs": [],
      "name": "name",
      "outputs": [
        {
          "internalType": "string",
          "name": "",
          "type": "string"
        }
      ],
      "stateMutability": "view",
      "type": "function"
    },
    {
      "inputs": [],
      "name": "owner",
      "outputs": [
        {
          "internalType": "address",
          "name": "",
          "type": "address"
        }
      ],
      "stateMutability": "view",
      "type": "function"
    },
    {
      "inputs": [
        {
          "internalType": "uint256",
          "name": "tokenId",
          "type": "uint256"
        }
      ],
      "name": "ownerOf",
      "outputs": [
        {
          "internalType": "address",
          "name": "",
          "type": "address"
        }
      ],
      "stateMutability": "view",
      "type": "function"
    },
    {
      "inputs": [
        {
          "internalType": "address",
          "name": "dest",
          "type": "address"
        }
      ],
      "name": "payments",
      "outputs": [
        {
          "internalType": "uint256",
          "name": "",
          "type": "uint256"
        }
      ],
      "stateMutability": "view",
      "type": "function"
    },
    {
      "inputs": [],
      "name": "renounceOwnership",
      "outputs": [],
      "stateMutability": "nonpayable",
      "type": "function"
    },
    {
      "inputs": [
        {
          "internalType": "address",
          "name": "from",
          "type": "address"
        },
        {
          "internalType": "address",
          "name": "to",
          "type": "address"
        },
        {
          "internalType": "uint256",
          "name": "tokenId",
          "type": "uint256"
        }
      ],
      "name": "safeTransferFrom",
      "outputs": [],
      "stateMutability": "nonpayable",
      "type": "function"
    },
    {
      "inputs": [
        {
          "internalType": "address",
          "name": "from",
          "type": "address"
        },
        {
          "internalType": "address",
          "name": "to",
          "type": "address"
        },
        {
          "internalType": "uint256",
          "name": "tokenId",
          "type": "uint256"
        },
        {
          "internalType": "bytes",
          "name": "_data",
          "type": "bytes"
        }
      ],
      "name": "safeTransferFrom",
      "outputs": [],
      "stateMutability": "nonpayable",
      "type": "function"
    },
    {
      "inputs": [
        {
          "internalType": "address",
          "name": "operator",
          "type": "address"
        },
        {
          "internalType": "bool",
          "name": "approved",
          "type": "bool"
        }
      ],
      "name": "setApprovalForAll",
      "outputs": [],
      "stateMutability": "nonpayable",
      "type": "function"
    },
    {
      "inputs": [
        {
          "internalType": "string",
          "name": "_baseTokenURI",
          "type": "string"
        }
      ],
      "name": "setBaseTokenURI",
      "outputs": [],
      "stateMutability": "nonpayable",
      "type": "function"
    },
    {
      "inputs": [
        {
          "internalType": "bytes4",
          "name": "interfaceId",
          "type": "bytes4"
        }
      ],
      "name": "supportsInterface",
      "outputs": [
        {
          "internalType": "bool",
          "name": "",
          "type": "bool"
        }
      ],
      "stateMutability": "view",
      "type": "function"
    },
    {
      "inputs": [],
      "name": "symbol",
      "outputs": [
        {
          "internalType": "string",
          "name": "",
          "type": "string"
        }
      ],
      "stateMutability": "view",
      "type": "function"
    },
    {
      "inputs": [
        {
          "internalType": "uint256",
          "name": "tokenId",
          "type": "uint256"
        }
      ],
      "name": "tokenURI",
      "outputs": [
        {
          "internalType": "string",
          "name": "",
          "type": "string"
        }
      ],
      "stateMutability": "view",
      "type": "function"
    },
    {
      "inputs": [
        {
          "internalType": "address",
          "name": "from",
          "type": "address"
        },
        {
          "internalType": "address",
          "name": "to",
          "type": "address"
        },
        {
          "internalType": "uint256",
          "name": "tokenId",
          "type": "uint256"
        }
      ],
      "name": "transferFrom",
      "outputs": [],
      "stateMutability": "nonpayable",
      "type": "function"
    },
    {
      "inputs": [
        {
          "internalType": "address",
          "name": "newOwner",
          "type": "address"
        }
      ],
      "name": "transferOwnership",
      "outputs": [],
      "stateMutability": "nonpayable",
      "type": "function"
    },
    {
      "inputs": [
        {
          "internalType": "address payable",
          "name": "payee",
          "type": "address"
        }
      ],
      "name": "withdrawPayments",
      "outputs": [],
      "stateMutability": "nonpayable",
      "type": "function"
    }
  ],
  "bytecode": "0x60a06040523480156200001157600080fd5b506040518060400160405280600f81526020017f4e465420436f6c6c65637469626c6500000000000000000000000000000000008152506040518060400160405280600381526020017f4e4643000000000000000000000000000000000000000000000000000000000081525081600090805190602001906200009692919062000230565b508060019080519060200190620000af92919062000230565b505050604051620000c090620002c1565b604051809103906000f080158015620000dd573d6000803e3d6000fd5b5073ffffffffffffffffffffffffffffffffffffffff1660808173ffffffffffffffffffffffffffffffffffffffff1660601b8152505062000134620001286200016260201b60201c565b6200016a60201b60201c565b60405180602001604052806000815250600890805190602001906200015b92919062000230565b5062000353565b600033905090565b6000600660009054906101000a900473ffffffffffffffffffffffffffffffffffffffff16905081600660006101000a81548173ffffffffffffffffffffffffffffffffffffffff021916908373ffffffffffffffffffffffffffffffffffffffff1602179055508173ffffffffffffffffffffffffffffffffffffffff168173ffffffffffffffffffffffffffffffffffffffff167f8be0079c531659141344cd1fd0a4f28419497f9722a3daafe3b4186f6b6457e060405160405180910390a35050565b8280546200023e90620002ee565b90600052602060002090601f016020900481019282620002625760008555620002ae565b82601f106200027d57805160ff1916838001178555620002ae565b82800160010185558215620002ae579182015b82811115620002ad57825182559160200191906001019062000290565b5b509050620002bd9190620002cf565b5090565b610ccd80620037c683390190565b5b80821115620002ea576000816000905550600101620002d0565b5090565b600060028204905060018216806200030757607f821691505b602082108114156200031e576200031d62000324565b5b50919050565b7f4e487b7100000000000000000000000000000000000000000000000000000000600052602260045260246000fd5b60805160601c61344d6200037960003960008181610f140152611621015261344d6000f3fe60806040526004361061012a5760003560e01c806370a08231116100ab578063b88d4fde1161006f578063b88d4fde146103cd578063c87b56dd146103f6578063d547cfb714610433578063e2982c211461045e578063e985e9c51461049b578063f2fde38b146104d85761012a565b806370a08231146102fa578063715018a6146103375780638da5cb5b1461034e57806395d89b4114610379578063a22cb465146103a45761012a565b806330176e13116100f257806330176e131461022657806331b3eb941461024f57806342842e0e146102785780636352211e146102a1578063699e5f22146102de5761012a565b806301ffc9a71461012f57806306fdde031461016c578063081812fc14610197578063095ea7b3146101d457806323b872dd146101fd575b600080fd5b34801561013b57600080fd5b50610156600480360381019061015191906123bc565b610501565b6040516101639190612c94565b60405180910390f35b34801561017857600080fd5b506101816105e3565b60405161018e9190612caf565b60405180910390f35b3480156101a357600080fd5b506101be60048036038101906101b9919061244f565b610675565b6040516101cb9190612c12565b60405180910390f35b3480156101e057600080fd5b506101fb60048036038101906101f69190612344565b6106fa565b005b34801561020957600080fd5b50610224600480360381019061021f919061223e565b610812565b005b34801561023257600080fd5b5061024d6004803603810190610248919061240e565b610872565b005b34801561025b57600080fd5b50610276600480360381019061027191906121d9565b610908565b005b34801561028457600080fd5b5061029f600480360381019061029a919061223e565b610990565b005b3480156102ad57600080fd5b506102c860048036038101906102c3919061244f565b6109b0565b6040516102d59190612c12565b60405180910390f35b6102f860048036038101906102f39190612380565b610a62565b005b34801561030657600080fd5b50610321600480360381019061031c91906121b0565b610b67565b60405161032e9190612f11565b60405180910390f35b34801561034357600080fd5b5061034c610c1f565b005b34801561035a57600080fd5b50610363610ca7565b6040516103709190612c12565b60405180910390f35b34801561038557600080fd5b5061038e610cd1565b60405161039b9190612caf565b60405180910390f35b3480156103b057600080fd5b506103cb60048036038101906103c69190612308565b610d63565b005b3480156103d957600080fd5b506103f460048036038101906103ef919061228d565b610d79565b005b34801561040257600080fd5b5061041d6004803603810190610418919061244f565b610ddb565b60405161042a9190612caf565b60405180910390f35b34801561043f57600080fd5b50610448610e82565b6040516104559190612caf565b60405180910390f35b34801561046a57600080fd5b50610485600480360381019061048091906121b0565b610f10565b6040516104929190612f11565b60405180910390f35b3480156104a757600080fd5b506104c260048036038101906104bd9190612202565b610fc2565b6040516104cf9190612c94565b60405180910390f35b3480156104e457600080fd5b506104ff60048036038101906104fa91906121b0565b611056565b005b60007f80ac58cd000000000000000000000000000000000000000000000000000000007bffffffffffffffffffffffffffffffffffffffffffffffffffffffff1916827bffffffffffffffffffffffffffffffffffffffffffffffffffffffff191614806105cc57507f5b5e139f000000000000000000000000000000000000000000000000000000007bffffffffffffffffffffffffffffffffffffffffffffffffffffffff1916827bffffffffffffffffffffffffffffffffffffffffffffffffffffffff1916145b806105dc57506105db8261114e565b5b9050919050565b6060600080546105f2906131ea565b80601f016020809104026020016040519081016040528092919081815260200182805461061e906131ea565b801561066b5780601f106106405761010080835404028352916020019161066b565b820191906000526020600020905b81548152906001019060200180831161064e57829003601f168201915b5050505050905090565b6000610680826111b8565b6106bf576040517f08c379a00000000000000000000000000000000000000000000000000000000081526004016106b690612e31565b60405180910390fd5b6004600083815260200190815260200160002060009054906101000a900473ffffffffffffffffffffffffffffffffffffffff169050919050565b6000610705826109b0565b90508073ffffffffffffffffffffffffffffffffffffffff168373ffffffffffffffffffffffffffffffffffffffff161415610776576040517f08c379a000000000000000000000000000000000000000000000000000000000815260040161076d90612eb1565b60405180910390fd5b8073ffffffffffffffffffffffffffffffffffffffff16610795611224565b73ffffffffffffffffffffffffffffffffffffffff1614806107c457506107c3816107be611224565b610fc2565b5b610803576040517f08c379a00000000000000000000000000000000000000000000000000000000081526004016107fa90612db1565b60405180910390fd5b61080d838361122c565b505050565b61082361081d611224565b826112e5565b610862576040517f08c379a000000000000000000000000000000000000000000000000000000000815260040161085990612ed1565b60405180910390fd5b61086d8383836113c3565b505050565b61087a611224565b73ffffffffffffffffffffffffffffffffffffffff16610898610ca7565b73ffffffffffffffffffffffffffffffffffffffff16146108ee576040517f08c379a00000000000000000000000000000000000000000000000000000000081526004016108e590612e51565b60405180910390fd5b8060089080519060200190610904929190611f95565b5050565b610910611224565b73ffffffffffffffffffffffffffffffffffffffff1661092e610ca7565b73ffffffffffffffffffffffffffffffffffffffff1614610984576040517f08c379a000000000000000000000000000000000000000000000000000000000815260040161097b90612e51565b60405180910390fd5b61098d8161161f565b50565b6109ab83838360405180602001604052806000815250610d79565b505050565b6000806002600084815260200190815260200160002060009054906101000a900473ffffffffffffffffffffffffffffffffffffffff169050600073ffffffffffffffffffffffffffffffffffffffff168173ffffffffffffffffffffffffffffffffffffffff161415610a59576040517f08c379a0000000000000000000000000000000000000000000000000000000008152600401610a5090612df1565b60405180910390fd5b80915050919050565b6000610a6e60076116ad565b90506127108260ff1682610a829190613000565b1115610ac3576040517f08c379a0000000000000000000000000000000000000000000000000000000008152600401610aba90612ef1565b60405180910390fd5b8160ff1666470de4df820000610ad99190613087565b3414610b1a576040517f08c379a0000000000000000000000000000000000000000000000000000000008152600401610b1190612d71565b60405180910390fd5b60005b8260ff168160ff161015610b6157610b3560076116bb565b6000610b4160076116ad565b9050610b4d85826116d1565b508080610b5990613265565b915050610b1d565b50505050565b60008073ffffffffffffffffffffffffffffffffffffffff168273ffffffffffffffffffffffffffffffffffffffff161415610bd8576040517f08c379a0000000000000000000000000000000000000000000000000000000008152600401610bcf90612dd1565b60405180910390fd5b600360008373ffffffffffffffffffffffffffffffffffffffff1673ffffffffffffffffffffffffffffffffffffffff168152602001908152602001600020549050919050565b610c27611224565b73ffffffffffffffffffffffffffffffffffffffff16610c45610ca7565b73ffffffffffffffffffffffffffffffffffffffff1614610c9b576040517f08c379a0000000000000000000000000000000000000000000000000000000008152600401610c9290612e51565b60405180910390fd5b610ca560006116ef565b565b6000600660009054906101000a900473ffffffffffffffffffffffffffffffffffffffff16905090565b606060018054610ce0906131ea565b80601f0160208091040260200160405190810160405280929190818152602001828054610d0c906131ea565b8015610d595780601f10610d2e57610100808354040283529160200191610d59565b820191906000526020600020905b815481529060010190602001808311610d3c57829003601f168201915b5050505050905090565b610d75610d6e611224565b83836117b5565b5050565b610d8a610d84611224565b836112e5565b610dc9576040517f08c379a0000000000000000000000000000000000000000000000000000000008152600401610dc090612ed1565b60405180910390fd5b610dd584848484611922565b50505050565b6060610de6826111b8565b610e25576040517f08c379a0000000000000000000000000000000000000000000000000000000008152600401610e1c90612e91565b60405180910390fd5b6000610e2f61197e565b90506000815111610e4f5760405180602001604052806000815250610e7a565b80610e5984611a10565b604051602001610e6a929190612bee565b6040516020818303038152906040525b915050919050565b60088054610e8f906131ea565b80601f0160208091040260200160405190810160405280929190818152602001828054610ebb906131ea565b8015610f085780601f10610edd57610100808354040283529160200191610f08565b820191906000526020600020905b815481529060010190602001808311610eeb57829003601f168201915b505050505081565b60007f000000000000000000000000000000000000000000000000000000000000000073ffffffffffffffffffffffffffffffffffffffff1663e3a9db1a836040518263ffffffff1660e01b8152600401610f6b9190612c12565b60206040518083038186803b158015610f8357600080fd5b505afa158015610f97573d6000803e3d6000fd5b505050506040513d601f19601f82011682018060405250810190610fbb9190612478565b9050919050565b6000600560008473ffffffffffffffffffffffffffffffffffffffff1673ffffffffffffffffffffffffffffffffffffffff16815260200190815260200160002060008373ffffffffffffffffffffffffffffffffffffffff1673ffffffffffffffffffffffffffffffffffffffff16815260200190815260200160002060009054906101000a900460ff16905092915050565b61105e611224565b73ffffffffffffffffffffffffffffffffffffffff1661107c610ca7565b73ffffffffffffffffffffffffffffffffffffffff16146110d2576040517f08c379a00000000000000000000000000000000000000000000000000000000081526004016110c990612e51565b60405180910390fd5b600073ffffffffffffffffffffffffffffffffffffffff168173ffffffffffffffffffffffffffffffffffffffff161415611142576040517f08c379a000000000000000000000000000000000000000000000000000000000815260040161113990612cf1565b60405180910390fd5b61114b816116ef565b50565b60007f01ffc9a7000000000000000000000000000000000000000000000000000000007bffffffffffffffffffffffffffffffffffffffffffffffffffffffff1916827bffffffffffffffffffffffffffffffffffffffffffffffffffffffff1916149050919050565b60008073ffffffffffffffffffffffffffffffffffffffff166002600084815260200190815260200160002060009054906101000a900473ffffffffffffffffffffffffffffffffffffffff1673ffffffffffffffffffffffffffffffffffffffff1614159050919050565b600033905090565b816004600083815260200190815260200160002060006101000a81548173ffffffffffffffffffffffffffffffffffffffff021916908373ffffffffffffffffffffffffffffffffffffffff160217905550808273ffffffffffffffffffffffffffffffffffffffff1661129f836109b0565b73ffffffffffffffffffffffffffffffffffffffff167f8c5be1e5ebec7d5bd14f71427d1e84f3dd0314c0f7b2291e5b200ac8c7c3b92560405160405180910390a45050565b60006112f0826111b8565b61132f576040517f08c379a000000000000000000000000000000000000000000000000000000000815260040161132690612d91565b60405180910390fd5b600061133a836109b0565b90508073ffffffffffffffffffffffffffffffffffffffff168473ffffffffffffffffffffffffffffffffffffffff1614806113a957508373ffffffffffffffffffffffffffffffffffffffff1661139184610675565b73ffffffffffffffffffffffffffffffffffffffff16145b806113ba57506113b98185610fc2565b5b91505092915050565b8273ffffffffffffffffffffffffffffffffffffffff166113e3826109b0565b73ffffffffffffffffffffffffffffffffffffffff1614611439576040517f08c379a000000000000000000000000000000000000000000000000000000000815260040161143090612e71565b60405180910390fd5b600073ffffffffffffffffffffffffffffffffffffffff168273ffffffffffffffffffffffffffffffffffffffff1614156114a9576040517f08c379a00000000000000000000000000000000000000000000000000000000081526004016114a090612d31565b60405180910390fd5b6114b4838383611bbd565b6114bf60008261122c565b6001600360008573ffffffffffffffffffffffffffffffffffffffff1673ffffffffffffffffffffffffffffffffffffffff168152602001908152602001600020600082825461150f91906130e1565b925050819055506001600360008473ffffffffffffffffffffffffffffffffffffffff1673ffffffffffffffffffffffffffffffffffffffff16815260200190815260200160002060008282546115669190613000565b92505081905550816002600083815260200190815260200160002060006101000a81548173ffffffffffffffffffffffffffffffffffffffff021916908373ffffffffffffffffffffffffffffffffffffffff160217905550808273ffffffffffffffffffffffffffffffffffffffff168473ffffffffffffffffffffffffffffffffffffffff167fddf252ad1be2c89b69c2b068fc378daa952ba7f163c4a11628f55a4df523b3ef60405160405180910390a4505050565b7f000000000000000000000000000000000000000000000000000000000000000073ffffffffffffffffffffffffffffffffffffffff166351cff8d9826040518263ffffffff1660e01b81526004016116789190612c2d565b600060405180830381600087803b15801561169257600080fd5b505af11580156116a6573d6000803e3d6000fd5b5050505050565b600081600001549050919050565b6001816000016000828254019250508190555050565b6116eb828260405180602001604052806000815250611bc2565b5050565b6000600660009054906101000a900473ffffffffffffffffffffffffffffffffffffffff16905081600660006101000a81548173ffffffffffffffffffffffffffffffffffffffff021916908373ffffffffffffffffffffffffffffffffffffffff1602179055508173ffffffffffffffffffffffffffffffffffffffff168173ffffffffffffffffffffffffffffffffffffffff167f8be0079c531659141344cd1fd0a4f28419497f9722a3daafe3b4186f6b6457e060405160405180910390a35050565b8173ffffffffffffffffffffffffffffffffffffffff168373ffffffffffffffffffffffffffffffffffffffff161415611824576040517f08c379a000000000000000000000000000000000000000000000000000000000815260040161181b90612d51565b60405180910390fd5b80600560008573ffffffffffffffffffffffffffffffffffffffff1673ffffffffffffffffffffffffffffffffffffffff16815260200190815260200160002060008473ffffffffffffffffffffffffffffffffffffffff1673ffffffffffffffffffffffffffffffffffffffff16815260200190815260200160002060006101000a81548160ff0219169083151502179055508173ffffffffffffffffffffffffffffffffffffffff168373ffffffffffffffffffffffffffffffffffffffff167f17307eab39ab6107e8899845ad3d59bd9653f200f220920489ca2b5937696c31836040516119159190612c94565b60405180910390a3505050565b61192d8484846113c3565b61193984848484611c1d565b611978576040517f08c379a000000000000000000000000000000000000000000000000000000000815260040161196f90612cd1565b60405180910390fd5b50505050565b60606008805461198d906131ea565b80601f01602080910402602001604051908101604052809291908181526020018280546119b9906131ea565b8015611a065780601f106119db57610100808354040283529160200191611a06565b820191906000526020600020905b8154815290600101906020018083116119e957829003601f168201915b5050505050905090565b60606000821415611a58576040518060400160405280600181526020017f30000000000000000000000000000000000000000000000000000000000000008152509050611bb8565b600082905060005b60008214611a8a578080611a739061321c565b915050600a82611a839190613056565b9150611a60565b60008167ffffffffffffffff811115611acc577f4e487b7100000000000000000000000000000000000000000000000000000000600052604160045260246000fd5b6040519080825280601f01601f191660200182016040528015611afe5781602001600182028036833780820191505090505b5090505b60008514611bb157600182611b1791906130e1565b9150600a85611b26919061328f565b6030611b329190613000565b60f81b818381518110611b6e577f4e487b7100000000000000000000000000000000000000000000000000000000600052603260045260246000fd5b60200101907effffffffffffffffffffffffffffffffffffffffffffffffffffffffffffff1916908160001a905350600a85611baa9190613056565b9450611b02565b8093505050505b919050565b505050565b611bcc8383611db4565b611bd96000848484611c1d565b611c18576040517f08c379a0000000000000000000000000000000000000000000000000000000008152600401611c0f90612cd1565b60405180910390fd5b505050565b6000611c3e8473ffffffffffffffffffffffffffffffffffffffff16611f82565b15611da7578373ffffffffffffffffffffffffffffffffffffffff1663150b7a02611c67611224565b8786866040518563ffffffff1660e01b8152600401611c899493929190612c48565b602060405180830381600087803b158015611ca357600080fd5b505af1925050508015611cd457506040513d601f19601f82011682018060405250810190611cd191906123e5565b60015b611d57573d8060008114611d04576040519150601f19603f3d011682016040523d82523d6000602084013e611d09565b606091505b50600081511415611d4f576040517f08c379a0000000000000000000000000000000000000000000000000000000008152600401611d4690612cd1565b60405180910390fd5b805181602001fd5b63150b7a0260e01b7bffffffffffffffffffffffffffffffffffffffffffffffffffffffff1916817bffffffffffffffffffffffffffffffffffffffffffffffffffffffff191614915050611dac565b600190505b949350505050565b600073ffffffffffffffffffffffffffffffffffffffff168273ffffffffffffffffffffffffffffffffffffffff161415611e24576040517f08c379a0000000000000000000000000000000000000000000000000000000008152600401611e1b90612e11565b60405180910390fd5b611e2d816111b8565b15611e6d576040517f08c379a0000000000000000000000000000000000000000000000000000000008152600401611e6490612d11565b60405180910390fd5b611e7960008383611bbd565b6001600360008473ffffffffffffffffffffffffffffffffffffffff1673ffffffffffffffffffffffffffffffffffffffff1681526020019081526020016000206000828254611ec99190613000565b92505081905550816002600083815260200190815260200160002060006101000a81548173ffffffffffffffffffffffffffffffffffffffff021916908373ffffffffffffffffffffffffffffffffffffffff160217905550808273ffffffffffffffffffffffffffffffffffffffff16600073ffffffffffffffffffffffffffffffffffffffff167fddf252ad1be2c89b69c2b068fc378daa952ba7f163c4a11628f55a4df523b3ef60405160405180910390a45050565b600080823b905060008111915050919050565b828054611fa1906131ea565b90600052602060002090601f016020900481019282611fc3576000855561200a565b82601f10611fdc57805160ff191683800117855561200a565b8280016001018555821561200a579182015b82811115612009578251825591602001919060010190611fee565b5b509050612017919061201b565b5090565b5b8082111561203457600081600090555060010161201c565b5090565b600061204b61204684612f5d565b612f2c565b90508281526020810184848401111561206357600080fd5b61206e8482856131a8565b509392505050565b600061208961208484612f8d565b612f2c565b9050828152602081018484840111156120a157600080fd5b6120ac8482856131a8565b509392505050565b6000813590506120c38161338d565b92915050565b6000813590506120d8816133a4565b92915050565b6000813590506120ed816133bb565b92915050565b600081359050612102816133d2565b92915050565b600081519050612117816133d2565b92915050565b600082601f83011261212e57600080fd5b813561213e848260208601612038565b91505092915050565b600082601f83011261215857600080fd5b8135612168848260208601612076565b91505092915050565b600081359050612180816133e9565b92915050565b600081519050612195816133e9565b92915050565b6000813590506121aa81613400565b92915050565b6000602082840312156121c257600080fd5b60006121d0848285016120b4565b91505092915050565b6000602082840312156121eb57600080fd5b60006121f9848285016120c9565b91505092915050565b6000806040838503121561221557600080fd5b6000612223858286016120b4565b9250506020612234858286016120b4565b9150509250929050565b60008060006060848603121561225357600080fd5b6000612261868287016120b4565b9350506020612272868287016120b4565b925050604061228386828701612171565b9150509250925092565b600080600080608085870312156122a357600080fd5b60006122b1878288016120b4565b94505060206122c2878288016120b4565b93505060406122d387828801612171565b925050606085013567ffffffffffffffff8111156122f057600080fd5b6122fc8782880161211d565b91505092959194509250565b6000806040838503121561231b57600080fd5b6000612329858286016120b4565b925050602061233a858286016120de565b9150509250929050565b6000806040838503121561235757600080fd5b6000612365858286016120b4565b925050602061237685828601612171565b9150509250929050565b6000806040838503121561239357600080fd5b60006123a1858286016120b4565b92505060206123b28582860161219b565b9150509250929050565b6000602082840312156123ce57600080fd5b60006123dc848285016120f3565b91505092915050565b6000602082840312156123f757600080fd5b600061240584828501612108565b91505092915050565b60006020828403121561242057600080fd5b600082013567ffffffffffffffff81111561243a57600080fd5b61244684828501612147565b91505092915050565b60006020828403121561246157600080fd5b600061246f84828501612171565b91505092915050565b60006020828403121561248a57600080fd5b600061249884828501612186565b91505092915050565b6124aa81613127565b82525050565b6124b981613115565b82525050565b6124c881613139565b82525050565b60006124d982612fbd565b6124e38185612fd3565b93506124f38185602086016131b7565b6124fc8161337c565b840191505092915050565b600061251282612fc8565b61251c8185612fe4565b935061252c8185602086016131b7565b6125358161337c565b840191505092915050565b600061254b82612fc8565b6125558185612ff5565b93506125658185602086016131b7565b80840191505092915050565b600061257e603283612fe4565b91507f4552433732313a207472616e7366657220746f206e6f6e20455243373231526560008301527f63656976657220696d706c656d656e74657200000000000000000000000000006020830152604082019050919050565b60006125e4602683612fe4565b91507f4f776e61626c653a206e6577206f776e657220697320746865207a65726f206160008301527f64647265737300000000000000000000000000000000000000000000000000006020830152604082019050919050565b600061264a601c83612fe4565b91507f4552433732313a20746f6b656e20616c7265616479206d696e746564000000006000830152602082019050919050565b600061268a602483612fe4565b91507f4552433732313a207472616e7366657220746f20746865207a65726f2061646460008301527f72657373000000000000000000000000000000000000000000000000000000006020830152604082019050919050565b60006126f0601983612fe4565b91507f4552433732313a20617070726f766520746f2063616c6c6572000000000000006000830152602082019050919050565b6000612730602e83612fe4565b91507f5472616e73616374696f6e2076616c756520646964206e6f7420657175616c2060008301527f746865206d696e742070726963650000000000000000000000000000000000006020830152604082019050919050565b6000612796602c83612fe4565b91507f4552433732313a206f70657261746f7220717565727920666f72206e6f6e657860008301527f697374656e7420746f6b656e00000000000000000000000000000000000000006020830152604082019050919050565b60006127fc603883612fe4565b91507f4552433732313a20617070726f76652063616c6c6572206973206e6f74206f7760008301527f6e6572206e6f7220617070726f76656420666f7220616c6c00000000000000006020830152604082019050919050565b6000612862602a83612fe4565b91507f4552433732313a2062616c616e636520717565727920666f7220746865207a6560008301527f726f2061646472657373000000000000000000000000000000000000000000006020830152604082019050919050565b60006128c8602983612fe4565b91507f4552433732313a206f776e657220717565727920666f72206e6f6e657869737460008301527f656e7420746f6b656e00000000000000000000000000000000000000000000006020830152604082019050919050565b600061292e602083612fe4565b91507f4552433732313a206d696e7420746f20746865207a65726f20616464726573736000830152602082019050919050565b600061296e602c83612fe4565b91507f4552433732313a20617070726f76656420717565727920666f72206e6f6e657860008301527f697374656e7420746f6b656e00000000000000000000000000000000000000006020830152604082019050919050565b60006129d4602083612fe4565b91507f4f776e61626c653a2063616c6c6572206973206e6f7420746865206f776e65726000830152602082019050919050565b6000612a14602983612fe4565b91507f4552433732313a207472616e73666572206f6620746f6b656e2074686174206960008301527f73206e6f74206f776e00000000000000000000000000000000000000000000006020830152604082019050919050565b6000612a7a602f83612fe4565b91507f4552433732314d657461646174613a2055524920717565727920666f72206e6f60008301527f6e6578697374656e7420746f6b656e00000000000000000000000000000000006020830152604082019050919050565b6000612ae0602183612fe4565b91507f4552433732313a20617070726f76616c20746f2063757272656e74206f776e6560008301527f72000000000000000000000000000000000000000000000000000000000000006020830152604082019050919050565b6000612b46603183612fe4565b91507f4552433732313a207472616e736665722063616c6c6572206973206e6f74206f60008301527f776e6572206e6f7220617070726f7665640000000000000000000000000000006020830152604082019050919050565b6000612bac601283612fe4565b91507f4d617820737570706c79207265616368656400000000000000000000000000006000830152602082019050919050565b612be881613191565b82525050565b6000612bfa8285612540565b9150612c068284612540565b91508190509392505050565b6000602082019050612c2760008301846124b0565b92915050565b6000602082019050612c4260008301846124a1565b92915050565b6000608082019050612c5d60008301876124b0565b612c6a60208301866124b0565b612c776040830185612bdf565b8181036060830152612c8981846124ce565b905095945050505050565b6000602082019050612ca960008301846124bf565b92915050565b60006020820190508181036000830152612cc98184612507565b905092915050565b60006020820190508181036000830152612cea81612571565b9050919050565b60006020820190508181036000830152612d0a816125d7565b9050919050565b60006020820190508181036000830152612d2a8161263d565b9050919050565b60006020820190508181036000830152612d4a8161267d565b9050919050565b60006020820190508181036000830152612d6a816126e3565b9050919050565b60006020820190508181036000830152612d8a81612723565b9050919050565b60006020820190508181036000830152612daa81612789565b9050919050565b60006020820190508181036000830152612dca816127ef565b9050919050565b60006020820190508181036000830152612dea81612855565b9050919050565b60006020820190508181036000830152612e0a816128bb565b9050919050565b60006020820190508181036000830152612e2a81612921565b9050919050565b60006020820190508181036000830152612e4a81612961565b9050919050565b60006020820190508181036000830152612e6a816129c7565b9050919050565b60006020820190508181036000830152612e8a81612a07565b9050919050565b60006020820190508181036000830152612eaa81612a6d565b9050919050565b60006020820190508181036000830152612eca81612ad3565b9050919050565b60006020820190508181036000830152612eea81612b39565b9050919050565b60006020820190508181036000830152612f0a81612b9f565b9050919050565b6000602082019050612f266000830184612bdf565b92915050565b6000604051905081810181811067ffffffffffffffff82111715612f5357612f5261334d565b5b8060405250919050565b600067ffffffffffffffff821115612f7857612f7761334d565b5b601f19601f8301169050602081019050919050565b600067ffffffffffffffff821115612fa857612fa761334d565b5b601f19601f8301169050602081019050919050565b600081519050919050565b600081519050919050565b600082825260208201905092915050565b600082825260208201905092915050565b600081905092915050565b600061300b82613191565b915061301683613191565b9250827fffffffffffffffffffffffffffffffffffffffffffffffffffffffffffffffff0382111561304b5761304a6132c0565b5b828201905092915050565b600061306182613191565b915061306c83613191565b92508261307c5761307b6132ef565b5b828204905092915050565b600061309282613191565b915061309d83613191565b9250817fffffffffffffffffffffffffffffffffffffffffffffffffffffffffffffffff04831182151516156130d6576130d56132c0565b5b828202905092915050565b60006130ec82613191565b91506130f783613191565b92508282101561310a576131096132c0565b5b828203905092915050565b600061312082613171565b9050919050565b600061313282613171565b9050919050565b60008115159050919050565b60007fffffffff0000000000000000000000000000000000000000000000000000000082169050919050565b600073ffffffffffffffffffffffffffffffffffffffff82169050919050565b6000819050919050565b600060ff82169050919050565b82818337600083830152505050565b60005b838110156131d55780820151818401526020810190506131ba565b838111156131e4576000848401525b50505050565b6000600282049050600182168061320257607f821691505b602082108114156132165761321561331e565b5b50919050565b600061322782613191565b91507fffffffffffffffffffffffffffffffffffffffffffffffffffffffffffffffff82141561325a576132596132c0565b5b600182019050919050565b60006132708261319b565b915060ff821415613284576132836132c0565b5b600182019050919050565b600061329a82613191565b91506132a583613191565b9250826132b5576132b46132ef565b5b828206905092915050565b7f4e487b7100000000000000000000000000000000000000000000000000000000600052601160045260246000fd5b7f4e487b7100000000000000000000000000000000000000000000000000000000600052601260045260246000fd5b7f4e487b7100000000000000000000000000000000000000000000000000000000600052602260045260246000fd5b7f4e487b7100000000000000000000000000000000000000000000000000000000600052604160045260246000fd5b6000601f19601f8301169050919050565b61339681613115565b81146133a157600080fd5b50565b6133ad81613127565b81146133b857600080fd5b50565b6133c481613139565b81146133cf57600080fd5b50565b6133db81613145565b81146133e657600080fd5b50565b6133f281613191565b81146133fd57600080fd5b50565b6134098161319b565b811461341457600080fd5b5056fea26469706673582212201b3d6cf4bc08fd112a829b6bcfd604395125914700d265985aa71b6896ef7bad64736f6c63430008000033608060405234801561001057600080fd5b5061002d61002261003260201b60201c565b61003a60201b60201c565b6100fe565b600033905090565b60008060009054906101000a900473ffffffffffffffffffffffffffffffffffffffff169050816000806101000a81548173ffffffffffffffffffffffffffffffffffffffff021916908373ffffffffffffffffffffffffffffffffffffffff1602179055508173ffffffffffffffffffffffffffffffffffffffff168173ffffffffffffffffffffffffffffffffffffffff167f8be0079c531659141344cd1fd0a4f28419497f9722a3daafe3b4186f6b6457e060405160405180910390a35050565b610bc08061010d6000396000f3fe6080604052600436106100555760003560e01c806351cff8d91461005a578063715018a6146100835780638da5cb5b1461009a578063e3a9db1a146100c5578063f2fde38b14610102578063f340fa011461012b575b600080fd5b34801561006657600080fd5b50610081600480360381019061007c91906107f5565b610147565b005b34801561008f57600080fd5b506100986102c7565b005b3480156100a657600080fd5b506100af61034f565b6040516100bc91906109b7565b60405180910390f35b3480156100d157600080fd5b506100ec60048036038101906100e791906107cc565b610378565b6040516100f99190610a52565b60405180910390f35b34801561010e57600080fd5b50610129600480360381019061012491906107cc565b6103c1565b005b610145600480360381019061014091906107cc565b6104b9565b005b61014f6105e2565b73ffffffffffffffffffffffffffffffffffffffff1661016d61034f565b73ffffffffffffffffffffffffffffffffffffffff16146101c3576040517f08c379a00000000000000000000000000000000000000000000000000000000081526004016101ba90610a32565b60405180910390fd5b6000600160008373ffffffffffffffffffffffffffffffffffffffff1673ffffffffffffffffffffffffffffffffffffffff1681526020019081526020016000205490506000600160008473ffffffffffffffffffffffffffffffffffffffff1673ffffffffffffffffffffffffffffffffffffffff16815260200190815260200160002081905550610275818373ffffffffffffffffffffffffffffffffffffffff166105ea90919063ffffffff16565b8173ffffffffffffffffffffffffffffffffffffffff167f7084f5476618d8e60b11ef0d7d3f06914655adb8793e28ff7f018d4c76d505d5826040516102bb9190610a52565b60405180910390a25050565b6102cf6105e2565b73ffffffffffffffffffffffffffffffffffffffff166102ed61034f565b73ffffffffffffffffffffffffffffffffffffffff1614610343576040517f08c379a000000000000000000000000000000000000000000000000000000000815260040161033a90610a32565b60405180910390fd5b61034d60006106de565b565b60008060009054906101000a900473ffffffffffffffffffffffffffffffffffffffff16905090565b6000600160008373ffffffffffffffffffffffffffffffffffffffff1673ffffffffffffffffffffffffffffffffffffffff168152602001908152602001600020549050919050565b6103c96105e2565b73ffffffffffffffffffffffffffffffffffffffff166103e761034f565b73ffffffffffffffffffffffffffffffffffffffff161461043d576040517f08c379a000000000000000000000000000000000000000000000000000000000815260040161043490610a32565b60405180910390fd5b600073ffffffffffffffffffffffffffffffffffffffff168173ffffffffffffffffffffffffffffffffffffffff1614156104ad576040517f08c379a00000000000000000000000000000000000000000000000000000000081526004016104a4906109d2565b60405180910390fd5b6104b6816106de565b50565b6104c16105e2565b73ffffffffffffffffffffffffffffffffffffffff166104df61034f565b73ffffffffffffffffffffffffffffffffffffffff1614610535576040517f08c379a000000000000000000000000000000000000000000000000000000000815260040161052c90610a32565b60405180910390fd5b600034905080600160008473ffffffffffffffffffffffffffffffffffffffff1673ffffffffffffffffffffffffffffffffffffffff16815260200190815260200160002060008282546105899190610a89565b925050819055508173ffffffffffffffffffffffffffffffffffffffff167f2da466a7b24304f47e87fa2e1e5a81b9831ce54fec19055ce277ca2f39ba42c4826040516105d69190610a52565b60405180910390a25050565b600033905090565b8047101561062d576040517f08c379a000000000000000000000000000000000000000000000000000000000815260040161062490610a12565b60405180910390fd5b60008273ffffffffffffffffffffffffffffffffffffffff1682604051610653906109a2565b60006040518083038185875af1925050503d8060008114610690576040519150601f19603f3d011682016040523d82523d6000602084013e610695565b606091505b50509050806106d9576040517f08c379a00000000000000000000000000000000000000000000000000000000081526004016106d0906109f2565b60405180910390fd5b505050565b60008060009054906101000a900473ffffffffffffffffffffffffffffffffffffffff169050816000806101000a81548173ffffffffffffffffffffffffffffffffffffffff021916908373ffffffffffffffffffffffffffffffffffffffff1602179055508173ffffffffffffffffffffffffffffffffffffffff168173ffffffffffffffffffffffffffffffffffffffff167f8be0079c531659141344cd1fd0a4f28419497f9722a3daafe3b4186f6b6457e060405160405180910390a35050565b6000813590506107b181610b5c565b92915050565b6000813590506107c681610b73565b92915050565b6000602082840312156107de57600080fd5b60006107ec848285016107a2565b91505092915050565b60006020828403121561080757600080fd5b6000610815848285016107b7565b91505092915050565b61082781610adf565b82525050565b600061083a602683610a78565b91507f4f776e61626c653a206e6577206f776e657220697320746865207a65726f206160008301527f64647265737300000000000000000000000000000000000000000000000000006020830152604082019050919050565b60006108a0603a83610a78565b91507f416464726573733a20756e61626c6520746f2073656e642076616c75652c207260008301527f6563697069656e74206d617920686176652072657665727465640000000000006020830152604082019050919050565b6000610906601d83610a78565b91507f416464726573733a20696e73756666696369656e742062616c616e63650000006000830152602082019050919050565b6000610946602083610a78565b91507f4f776e61626c653a2063616c6c6572206973206e6f7420746865206f776e65726000830152602082019050919050565b6000610986600083610a6d565b9150600082019050919050565b61099c81610b23565b82525050565b60006109ad82610979565b9150819050919050565b60006020820190506109cc600083018461081e565b92915050565b600060208201905081810360008301526109eb8161082d565b9050919050565b60006020820190508181036000830152610a0b81610893565b9050919050565b60006020820190508181036000830152610a2b816108f9565b9050919050565b60006020820190508181036000830152610a4b81610939565b9050919050565b6000602082019050610a676000830184610993565b92915050565b600081905092915050565b600082825260208201905092915050565b6000610a9482610b23565b9150610a9f83610b23565b9250827fffffffffffffffffffffffffffffffffffffffffffffffffffffffffffffffff03821115610ad457610ad3610b2d565b5b828201905092915050565b6000610aea82610b03565b9050919050565b6000610afc82610b03565b9050919050565b600073ffffffffffffffffffffffffffffffffffffffff82169050919050565b6000819050919050565b7f4e487b7100000000000000000000000000000000000000000000000000000000600052601160045260246000fd5b610b6581610adf565b8114610b7057600080fd5b50565b610b7c81610af1565b8114610b8757600080fd5b5056fea26469706673582212204e8ab707adc9ee645b828ddc4f791bd246fea3a80e8eeba1ce50ca1d3c28c2cb64736f6c63430008000033",
  "linkReferences": {},
  "deployedLinkReferences": {}
}